:1000000019C033C032C031C030C02FC02EC02DC087
:100010002CC02BC02AC029C028C027C026C025C09C
:1000200024C023C022C021C020C01FC01EC01DC0CC
:100030001CC01BC011241FBECFEFCDBFDFE3DEBF4E
:100040001FE3A0E0BFE3E2E9F8E002C005900D92F3
:10005000AE30B107D9F72FE3AEE0BFE301C01D9288
:10006000AF32B207E1F7A6D1E8C2CACFE2E2FFE3BE
:1000700080E28083818382838383848385838683F4
:1000800087830895282F019898E080E0880F0298D0
:1000900011998160029A9150C9F72111019A029831
:1000A000029A0895019A02980198089598E087FFAE
:1000B0000AC001980298029A880F9150C1F70198DE
:1000C0000298029A0895019AF5CF019A029AEECF0A
:1000D000CF93C82FC37088E7F8DF80E0E7DF80E0C8
:1000E000E5DF80E1E3DF8C2F806BE0DFDBDF109268
:1000F0002E3FC0932D3FCF910895CF93C82F82E21A
:10010000E4DF82E08C0FD2DFEC2FF0E0EE0FFF1F78
:10011000E050F14CC0818181C9DF8C2FC7DFCF91C6
:10012000C1CFEF92FF920F931F93CF93DF9381E2A2
:10013000CCDF86E1E82E8FE3F82EC5E081E0A2DF78
:10014000D82F8C2F9FDF9D2FF701819391937F01F3
:10015000C150A0F7A7DFC091163FD091173FD6FF3F
:1001600016C08091023F9091033F8F7E8093023FA3
:100170009093033F81E0C1DF8091003F9091013F68
:100180009E7F8093003F9093013F80E0B6DFD7FFD2
:1001900046C0C091003FD091013FC77FC093003F50
:1001A000D093013F80E0A9DFC860C093003FD093A7
:1001B000013F80E0A2DF8091183F84FD30C0809134
:1001C0001C3F90911D3F9C012227387F232B39F53E
:1001D0002091203F9091213F092F10E0880F8670D9
:1001E00090E0FC01E25FF04C3081432F032E000CC5
:1001F000550B40175107D1F4FC01EE5DF04C3083F4
:100200000196FC01E25FF04C4081042E000C550B7E
:100210002417150619F48E5D904CFC012083DF91A4
:10022000CF911F910F91FF90EF9008950083E8CF39
:100230001DDFE0E0FFE38081918191608083918305
:1002400080E05BCFE0E0FFE326813781207F282B31
:100250002683378383E051CF1F93CF93DF93082EFC
:10026000000C990B8097EC01CC0FDD1FCC0FDD1F2C
:10027000C80FD91F80E01ADFC25CD94715E0899109
:1002800015DF1150E1F780912E3F8A5F80932E3F5A
:100290008B3770F007DF80912D3F8F5F80932D3F6C
:1002A00017DF88E712DF80E4DF91CF911F91FECE48
:1002B000DF91CF911F910895FF920F931F93CF93DA
:1002C000DF938C01C62FF42E88E7FFDE80E4EEDE9C
:1002D000D0E0C15000F1EC2FF0E0EE0FFF1FE25E26
:1002E000F7472081318180E00217130728F08F5FE4
:1002F000021B130BD1E0F8CFCF1101C0DF5F805D8F
:10030000D11101C080E2A8DFFF2019F3CF11E1CFA6
:100310008EE2A2DFDECFDF91CF911F910F91FF9090
:10032000C1CE0F931F93CF93DF938C0188E7CDDE6F
:1003300080E4BCDEE8018991882311F08DDFFBCFDA
:10034000DF91CF911F910F91ADCE88E7BEDE80E4A3
:10035000ADDE80912E3F91E0980F90932E3F87FD68
:1003600002C080E0F5CF9EDE80912D3F8F5F8093AD
:100370002D3FAECE67EE7CE690E080E046D1609106
:10038000163F7091173F737082E090E03ED160910C
:100390000C3F84E090E030C187EA91E60197F1F7E5
:1003A00000C00000BEDE8091163F9091173F96FF7F
:1003B000F3CF089588ED97E084BF9093610080E1CA
:1003C0008093A0009DE1909306068093020680E64C
:1003D0008093030685E08093000688E776DE80E060
:1003E00065DEC8E2D8E8899161DE28E8C333D20728
:1003F000D1F758DE809113048860809313048091B4
:100400001704886080931704809116048860809395
:10041000160480E05DDE99DF98DF97DF96DF83E3E7
:1004200098E87FDF92DF89E498E87BDF1FDE109297
:100430002A3F0091003F1091013FC80182608093E4
:10044000003F9093013F8091063F9091073F81606C
:100450008093063F9093073F80E237DEC0E0DFE302
:100460007CE0E72E7FE3F72ED880898122961EDE7E
:100470008D2D1CDEEC16FD06B9F714DE0D7F009302
:10048000003F1093013F80E038DE90E080E0B0D084
:10049000873E9C4621F582E090E0AAD0EC01809353
:1004A0002B3F90932C3F84E090E09AD080930C3FB8
:1004B000DDDD8091023F9091033F8F73992780612A
:1004C000229766E0CC0FDD1F6A95E1F78C2B9D2B00
:1004D0008093023F9093033F81E00FDE5DDF8091C8
:1004E0000C3FB0DEA5DE58DF1CDE81E0F1DD86E5E5
:1004F00098E817DF82E29FE314DF27DF81E698E8C0
:1005000010DF80910C3F40E062E090E0D5DE87E6AE
:1005100098E807DF2091163F3091173FC90143E06B
:10052000880F991F4A95E1F7887F9F71220F331F2B
:100530002E7F3770820F931F42E065E084509E4DFE
:10054000BBDE80E798E8EDDE8091193F40E062E095
:10055000869590E0B1DE86E798E8E3DE81E080935F
:100560000B068093080680910B0680FFFCCF8091DC
:100570001006893590F18FE798E8D3DEE6DE16990C
:100580000DC081E0A5DD87E898E8CBDEDEDEDDDEAC
:10059000DCDE4EDE01DFEEDE169BFECF13990DC0D2
:1005A00080910C3F8F3018F48F5F80930C3F8091C7
:1005B0000C3F48DEDFDE139BFECF179995CF80916D
:1005C0000C3F882319F0815080930C3F80910C3FA1
:1005D00039DED0DE179BFECF87CF84E898E8CDCFF9
:1005E00003D0808199270895FC01E050FC4E0895C6
:1005F000FBDF808191810895262FF6DF00800216AF
:1006000011F008D00197019708950196272FF5DF83
:10061000F3CF262FAF93BF93E0E0F0E1328131FDBD
:10062000FDCFDC01A050BC4E2C932DE924BF23E06C
:0E06300020830196BF91AF910895F894FFCFFB
:10063E00000000000000002F00000007000700145B
:10064E007F147F14242A7F2A1223130864623649EA
:10065E005522500005030000001C224100004122DB
:10066E001C0014083E081408083E08080000A0608C
:10067E000008080808080060600000201008040246
:10068E003E5149453E00427F40004261514946215C
:10069E0041454B311814127F1027454545393C4AC8
:1006AE004949300171090503364949493606494918
:1006BE00291E00363600000056360000081422416E
:1006CE0000141414141400412214080201510906D6
:1006DE00324959513E7C1211127C7F494949363EAE
:1006EE00414141227F4141221C7F494949417F09B5
:1006FE000909013E4149497A7F0808087F00417F78
:10070E0041002040413F017F081422417F4040407C
:10071E00407F020C027F7F0408107F3E4141413E24
:10072E007F090909063E4151215E7F091929464676
:10073E004949493101017F01013F4040403F1F209F
:10074E0040201F3F4038403F631408146307087071
:10075E0008076151494543007F41410002040810DA
:10076E00200041417F00040201020440404040400D
:10077E00000102040020545454787F484444383811
:10078E0044444420384444487F3854545418087E16
:10079E0009010218A4A4A47C7F0804047800447DF7
:1007AE0040004080847D007F1028440000417F403F
:1007BE00007C041804787C080404783844444438D7
:1007CE00FC2424241818242418FC7C08040408484B
:1007DE0054545420043F4440203C4040207C1C2074
:1007EE0040201C3C4030403C44281028441CA0A013
:1007FE00A07C4464544C44083641410000007F0004
:10080E000000414136080804081008FFFFFFFFFFF3
:10081E0001000A006400E8031027C8A1A81FDA022D
:10082E008D14AF8160464D20506F636B65742052FE
:10083E006164696F202076312E30005374617274BA
:10084E00696E67202E2E2E0053746174696F6E3A96
:10085E00202000566F6C3A20002020204672713AFC
:10086E0020005369673A20002020204261743A200C
:10087E00007765616B004F4B0054756E696E672093
:04088E002E2E2E00DC
:0E0892000DD2C015000A80880000000005008D
:00000001FF
